:020000040000FA
:03000000020AD918
:10080000120AB743E340C284C285C286C287C2903F
:10081000C291C292E4F508F509F50AF50BF50CF55D
:100820000DE5094508702CC29620831A050BE50BCF
:100830007002050AD3940FE50A6480948040E2E4D4
:10084000F50AF50B80DB2082D80509E50970D20591
:100850000880CE120ACA120ACAE509640145086076
:10086000030209D4E50A70F1E50BB4100050EA90D8
:100870000876F82828730208A60208B80208CA02F7
:1008800008DD0208F002090302091602092902091B
:100890003C02094F02096202097502098802099B9C
:1008A0000209AE0209C1C284C285C286C287050997
:1008B000E50970A5050880A1C284C285C286D287D9
:1008C0000509E50970930508808FC284C285D28628
:1008D000C2870509E50970810508020859C284C26A
:1008E00085D286D2870509E509703B0508020859BB
:1008F000C284D285C286C2870509E509700205084F
:10090000020859C284D285C286D2870509E50970DA
:10091000020508020859C284D285D286C287050919
:10092000E50970020508020859C284D285D286D230
:10093000870509E50970020508020859D284C285B5
:10094000C286C2870509E50970020508020859D266
:1009500084C285C286D2870509E5097002050802AE
:100960000859D284C285D286C2870509E50970027A
:100970000508020859D284C285D286D2870509E5C6
:100980000970020508020859D284D285C286C2873E
:100990000509E50970020508020859D284D285C20A
:1009A00086D2870509E50970020508020859D28434
:1009B000D285D286C2870509E509700205080208BA
:1009C00059D284D285D286D2870509E509700205FD
:1009D00008020859120ACA120ACAE509640245083F
:1009E000702CC295D296208318050DE50D70020576
:1009F0000CD39403E50C648094804005E4F50CF579
:100A00000D2082D60509E50970D0050880CC120AB0
:100A1000CA120ACAE50964034508704BE50C70F474
:100A2000E50D14601814602314602E240370E5C2D1
:100A300090C2910509E50970DB050880D7C290D204
:100A4000910509E50970CD050880C9D290C29105CC
:100A500009E50970BF050880BBD290D2910509E570
:100A60000970B1050880AD120ACA120ACAE5096404
:100A70000445087021C294D2952083F1D292F50EDC
:100A8000F50F050FE50F7002050EB410F5E50EB475
:100A900027F0C29280D7120ACA120ACAE509640571
:100AA000450860030208142082F22083EF0509E55F
:100AB0000970E9050880E585A710120AE5120AEF1A
:100AC000120AF6120AFD8510A722E4FFFE0FBF00EE
:100AD000010EBE4EF8BF20F522787FE4F6D8FD75F2
:100AE0008110020800E4F5A77597DE7597AD2275B1
:100AF000A4F075D4F02275A50775D5072275E340DB
:010B000022D2
:00000001FF
